{
  "contractName": "Voting",
  "abi": [
    {
      "constant": true,
      "inputs": [
        {
          "internalType": "uint256",
          "name": "",
          "type": "uint256"
        }
      ],
      "name": "Voters",
      "outputs": [
        {
          "internalType": "address",
          "name": "",
          "type": "address"
        }
      ],
      "payable": false,
      "stateMutability": "view",
      "type": "function"
    },
    {
      "constant": true,
      "inputs": [
        {
          "internalType": "address",
          "name": "",
          "type": "address"
        }
      ],
      "name": "hasVoted",
      "outputs": [
        {
          "internalType": "bool",
          "name": "",
          "type": "bool"
        }
      ],
      "payable": false,
      "stateMutability": "view",
      "type": "function"
    },
    {
      "constant": true,
      "inputs": [
        {
          "internalType": "uint256",
          "name": "",
          "type": "uint256"
        },
        {
          "internalType": "address",
          "name": "",
          "type": "address"
        }
      ],
      "name": "hasVotedForCandidate",
      "outputs": [
        {
          "internalType": "bool",
          "name": "",
          "type": "bool"
        }
      ],
      "payable": false,
      "stateMutability": "view",
      "type": "function"
    },
    {
      "constant": true,
      "inputs": [
        {
          "internalType": "uint256",
          "name": "",
          "type": "uint256"
        }
      ],
      "name": "voteCount",
      "outputs": [
        {
          "internalType": "uint256",
          "name": "",
          "type": "uint256"
        }
      ],
      "payable": false,
      "stateMutability": "view",
      "type": "function"
    },
    {
      "constant": false,
      "inputs": [
        {
          "internalType": "uint256",
          "name": "VotingsId",
          "type": "uint256"
        }
      ],
      "name": "Vote",
      "outputs": [
        {
          "internalType": "uint256",
          "name": "",
          "type": "uint256"
        }
      ],
      "payable": false,
      "stateMutability": "nonpayable",
      "type": "function"
    },
    {
      "constant": true,
      "inputs": [],
      "name": "getVoters",
      "outputs": [
        {
          "internalType": "address[4]",
          "name": "",
          "type": "address[4]"
        }
      ],
      "payable": false,
      "stateMutability": "view",
      "type": "function"
    },
    {
      "constant": true,
      "inputs": [],
      "name": "getVoteCounts",
      "outputs": [
        {
          "internalType": "uint256[4]",
          "name": "",
          "type": "uint256[4]"
        }
      ],
      "payable": false,
      "stateMutability": "view",
      "type": "function"
    }
  ],
  "bytecode": "0x608060405234801561001057600080fd5b5061065f806100206000396000f3fe608060405234801561001057600080fd5b506004361061007d5760003560e01c8063cdd722531161005b578063cdd722531461018e578063dcd6a5cd146101d4578063eb8487f314610216578063ffc97b201461027c5761007d565b806309eef43e146100825780634fc8a20d146100de5780639c35d98b14610120575b600080fd5b6100c46004803603602081101561009857600080fd5b81019080803573ffffffffffffffffffffffffffffffffffffffff1690602001909291905050506102c2565b604051808215151515815260200191505060405180910390f35b61010a600480360360208110156100f457600080fd5b81019080803590602001909291905050506102e2565b6040518082815260200191505060405180910390f35b61014c6004803603602081101561013657600080fd5b81019080803590602001909291905050506102fa565b604051808273ffffffffffffffffffffffffffffffffffffffff1673ffffffffffffffffffffffffffffffffffffffff16815260200191505060405180910390f35b61019661032d565b6040518082600460200280838360005b838110156101c15780820151818401526020810190506101a6565b5050505090500191505060405180910390f35b610200600480360360208110156101ea57600080fd5b81019080803590602001909291905050506103ae565b6040518082815260200191505060405180910390f35b6102626004803603604081101561022c57600080fd5b8101908080359060200190929190803573ffffffffffffffffffffffffffffffffffffffff16906020019092919050505061055a565b604051808215151515815260200191505060405180910390f35b610284610589565b6040518082600460200280838360005b838110156102af578082015181840152602081019050610294565b5050505090500191505060405180910390f35b60046020528060005260406000206000915054906101000a900460ff1681565b60066020528060005260406000206000915090505481565b6000816004811061030757fe5b016000915054906101000a900473ffffffffffffffffffffffffffffffffffffffff1681565b6103356105e6565b60006004806020026040519081016040528092919082600480156103a4576020028201915b8160009054906101000a900473ffffffffffffffffffffffffffffffffffffffff1673ffffffffffffffffffffffffffffffffffffffff168152602001906001019080831161035a575b5050505050905090565b60008082101580156103c1575060038211155b6103ca57600080fd5b600460003373ffffffffffffffffffffffffffffffffffffffff1673ffffffffffffffffffffffffffffffffffffffff16815260200190815260200160002060009054906101000a900460ff161561048a576040517f08c379a00000000000000000000000000000000000000000000000000000000081526004018080602001828103825260178152602001807f596f75206861766520616c726561647920766f7465642e00000000000000000081525060200191505060405180910390fd5b336000836004811061049857fe5b0160006101000a81548173ffffffffffffffffffffffffffffffffffffffff021916908373ffffffffffffffffffffffffffffffffffffffff1602179055506001600460003373ffffffffffffffffffffffffffffffffffffffff1673ffffffffffffffffffffffffffffffffffffffff16815260200190815260200160002060006101000a81548160ff0219169083151502179055506006600083815260200190815260200160002060008154809291906001019190505550819050919050565b60056020528160005260406000206020528060005260406000206000915091509054906101000a900460ff1681565b610591610608565b610599610608565b60008090505b60048110156105de5760066000828152602001908152602001600020548282600481106105c857fe5b602002018181525050808060010191505061059f565b508091505090565b6040518060800160405280600490602082028038833980820191505090505090565b604051806080016040528060049060208202803883398082019150509050509056fea265627a7a723158204958f6bdb10a6535737f5fa81a351bae4cfae16b9486edc02bd762db28408ba764736f6c63430005100032",
  "source": "// SPDX-License-Identifier: MIT\r\npragma solidity >=0.5.0 <0.9.0;\r\n\r\ncontract Voting {\r\n    address[4] public Voters;\r\n    mapping(address => bool) public hasVoted;\r\n    mapping(uint => mapping(address => bool)) public hasVotedForCandidate;\r\n    mapping(uint => uint) public voteCount;\r\n\r\n    // Vote function\r\n    function Vote(uint VotingsId) public returns (uint) {\r\n        require(VotingsId >= 0 && VotingsId <= 3);\r\n        require(!hasVoted[msg.sender], \"You have already voted.\");\r\n\r\n        Voters[VotingsId] = msg.sender;\r\n        hasVoted[msg.sender] = true;\r\n        voteCount[VotingsId]++; // Increment the vote count for the selected candidate\r\n\r\n        return VotingsId;\r\n    }\r\n\r\n    // Retrieving the Voters\r\n    function getVoters() public view returns (address[4] memory) {\r\n        return Voters;\r\n    }\r\n\r\n    // Retrieve the total vote count for a specific candidate\r\n    function getVoteCounts() public view returns (uint[4] memory) {\r\n        uint[4] memory counts;\r\n        for (uint i = 0; i < 4; i++) {\r\n            counts[i] = voteCount[i];\r\n        }\r\n        return counts;\r\n    }\r\n}\r\n",
  "sourcePath": "C:\\Users\\Administrator\\Desktop\\New folder (2)\\pet-shop-tutorial\\contracts\\Voting.sol",
  "compiler": {
    "name": "solc",
    "version": "0.5.16+commit.9c3226ce.Emscripten.clang"
  },
  "schemaVersion": "3.4.16",
  "updatedAt": "2024-01-23T16:18:43.583Z",
  "networkType": "ethereum",
  "devdoc": {
    "methods": {}
  },
  "userdoc": {
    "methods": {}
  }
}