{
  "contractName": "Voting",
  "abi": [
    {
      "anonymous": false,
      "inputs": [
        {
          "indexed": true,
          "internalType": "address",
          "name": "voter",
          "type": "address"
        },
        {
          "indexed": true,
          "internalType": "uint256",
          "name": "candidateId",
          "type": "uint256"
        }
      ],
      "name": "Voted",
      "type": "event"
    },
    {
      "constant": true,
      "inputs": [],
      "name": "NUM_CANDIDATES",
      "outputs": [
        {
          "internalType": "uint256",
          "name": "",
          "type": "uint256"
        }
      ],
      "payable": false,
      "stateMutability": "view",
      "type": "function"
    },
    {
      "constant": true,
      "inputs": [
        {
          "internalType": "address",
          "name": "",
          "type": "address"
        }
      ],
      "name": "hasVoted",
      "outputs": [
        {
          "internalType": "bool",
          "name": "",
          "type": "bool"
        }
      ],
      "payable": false,
      "stateMutability": "view",
      "type": "function"
    },
    {
      "constant": true,
      "inputs": [
        {
          "internalType": "uint256",
          "name": "",
          "type": "uint256"
        }
      ],
      "name": "voteCount",
      "outputs": [
        {
          "internalType": "uint256",
          "name": "",
          "type": "uint256"
        }
      ],
      "payable": false,
      "stateMutability": "view",
      "type": "function"
    },
    {
      "constant": false,
      "inputs": [
        {
          "internalType": "uint256",
          "name": "candidateId",
          "type": "uint256"
        }
      ],
      "name": "vote",
      "outputs": [],
      "payable": false,
      "stateMutability": "nonpayable",
      "type": "function"
    },
    {
      "constant": true,
      "inputs": [],
      "name": "getVoteCounts",
      "outputs": [
        {
          "internalType": "uint256[4]",
          "name": "counts",
          "type": "uint256[4]"
        }
      ],
      "payable": false,
      "stateMutability": "view",
      "type": "function"
    }
  ],
  "bytecode": "0x608060405234801561001057600080fd5b50610467806100206000396000f3fe608060405234801561001057600080fd5b50600436106100575760003560e01c80630121b93f1461005c57806309eef43e1461008a5780634fc8a20d146100e6578063f7fe716614610128578063ffc97b2014610146575b600080fd5b6100886004803603602081101561007257600080fd5b810190808035906020019092919050505061018c565b005b6100cc600480360360208110156100a057600080fd5b81019080803573ffffffffffffffffffffffffffffffffffffffff169060200190929190505050610382565b604051808215151515815260200191505060405180910390f35b610112600480360360208110156100fc57600080fd5b81019080803590602001909291905050506103a2565b6040518082815260200191505060405180910390f35b6101306103ba565b6040518082815260200191505060405180910390f35b61014e6103bf565b6040518082600460200280838360005b8381101561017957808201518184015260208101905061015e565b5050505090500191505060405180910390f35b60048110610202576040517f08c379a00000000000000000000000000000000000000000000000000000000081526004018080602001828103825260158152602001807f496e76616c69642063616e6469646174652049442e000000000000000000000081525060200191505060405180910390fd5b6000803373ffffffffffffffffffffffffffffffffffffffff1673ffffffffffffffffffffffffffffffffffffffff16815260200190815260200160002060009054906101000a900460ff16156102c1576040517f08c379a00000000000000000000000000000000000000000000000000000000081526004018080602001828103825260178152602001807f596f75206861766520616c726561647920766f7465642e00000000000000000081525060200191505060405180910390fd5b60016000803373ffffffffffffffffffffffffffffffffffffffff1673ffffffffffffffffffffffffffffffffffffffff16815260200190815260200160002060006101000a81548160ff0219169083151502179055506001600082815260200190815260200160002060008154809291906001019190505550803373ffffffffffffffffffffffffffffffffffffffff167f4d99b957a2bc29a30ebd96a7be8e68fe50a3c701db28a91436490b7d53870ca460405160405180910390a350565b60006020528060005260406000206000915054906101000a900460ff1681565b60016020528060005260406000206000915090505481565b600481565b6103c7610410565b60008090505b600481101561040c5760016000828152602001908152602001600020548282600481106103f657fe5b60200201818152505080806001019150506103cd565b5090565b604051806080016040528060049060208202803883398082019150509050509056fea265627a7a723158201af42d36b83f5a7eed27b9b1cc2240e53f356f033b10e8f8704dc604400863c464736f6c63430005100032",
  "source": "// SPDX-License-Identifier: MIT\r\npragma solidity >=0.5.0 <0.9.0;\r\n\r\ncontract Voting {\r\n    mapping(address => bool) public hasVoted; // Tracks whether an address has voted\r\n    mapping(uint => uint) public voteCount;   // Tracks the number of votes for each candidate\r\n    uint public constant NUM_CANDIDATES = 4;  // Total number of candidates\r\n\r\n    event Voted(address indexed voter, uint indexed candidateId); // Event emitted after a vote\r\n\r\n    // Function to cast a vote\r\n    function vote(uint candidateId) public {\r\n        require(candidateId < NUM_CANDIDATES, \"Invalid candidate ID.\"); // Check for valid candidate\r\n        require(!hasVoted[msg.sender], \"You have already voted.\"); // Ensure the voter hasn't voted before\r\n\r\n        hasVoted[msg.sender] = true; // Mark the voter as having voted\r\n        voteCount[candidateId]++; // Increment the vote count for the candidate\r\n\r\n        emit Voted(msg.sender, candidateId); // Emit the voting event\r\n    }\r\n\r\n    // Function to retrieve the total vote count for each candidate\r\n    function getVoteCounts() public view returns (uint[NUM_CANDIDATES] memory counts) {\r\n        for (uint i = 0; i < NUM_CANDIDATES; i++) {\r\n            counts[i] = voteCount[i];\r\n        }\r\n    }\r\n}\r\n",
  "sourcePath": "C:\\Users\\Administrator\\Desktop\\New folder (2)\\VotingdApp\\contracts\\Voting.sol",
  "compiler": {
    "name": "solc",
    "version": "0.5.16+commit.9c3226ce.Emscripten.clang"
  },
  "schemaVersion": "3.4.16",
  "updatedAt": "2024-01-24T00:17:03.929Z",
  "networkType": "ethereum",
  "devdoc": {
    "methods": {}
  },
  "userdoc": {
    "methods": {}
  }
}